{
  "transactions": [
    {
      "hash": "0xab7bea85456efa2373d9dbfbb97a21690d556c32babab8241ef1eb35bddfd284",
      "transactionType": "CALL",
      "contractName": null,
      "contractAddress": "0x0ada994863fed5f91b54cdaea2a1ffc8fd67ac1b",
      "function": "transfer(uint256,address,address)",
      "arguments": [
        "1000",
        "0x9F50f77708353535d41E876C98A59b024f118B74",
        "0xECff1b08b0B99fA9464AcbCAdadB1CF82d6C7E6E"
      ],
      "transaction": {
        "from": "0x372610bdcfa0531b40c8b27bb22a4e198ef04604",
        "to": "0x0ada994863fed5f91b54cdaea2a1ffc8fd67ac1b",
        "value": "0x0",
        "input": "0xccb570e300000000000000000000000000000000000000000000000000000000000003e80000000000000000000000009f50f77708353535d41e876c98a59b024f118b74000000000000000000000000ecff1b08b0b99fa9464acbcadadb1cf82d6c7e6e",
        "nonce": "0x19",
        "chainId": "0x745aa6"
      },
      "additionalContracts": [],
      "isFixedGasLimit": false
    }
  ],
  "receipts": [
    {
      "status": "0x1",
      "cumulativeGasUsed": "0x525184",
      "logs": [
        {
          "address": "0x208dc31cd6042a09bbfddb31614a337a51b870ba",
          "topics": [
            "0xb6c5491cf83e09749b1a4dd6a9f07b0e925fcb0a915ac8c2b40e8ab28191c270"
          ],
          "data": "0x00000000000000000000000052b1688677bd219a9b527825709eecaaedc6bfb5d8f4069676569dfe176c586ce611de6e9ac56fe28a1979cdbae2f8a5e85b2001",
          "blockHash": "0xf5b5f269de3a5015d02f4d2a6699a3c29f2645a021179833e6955a86908bcb96",
          "blockNumber": "0x9b1",
          "transactionHash": "0xab7bea85456efa2373d9dbfbb97a21690d556c32babab8241ef1eb35bddfd284",
          "transactionIndex": "0x1",
          "logIndex": "0x0",
          "removed": false
        },
        {
          "address": "0x208dc31cd6042a09bbfddb31614a337a51b870ba",
          "topics": [
            "0xb6c5491cf83e09749b1a4dd6a9f07b0e925fcb0a915ac8c2b40e8ab28191c270"
          ],
          "data": "0x000000000000000000000000c2cab51cb68ae7d18af309321a809908abb507a62e7d72286a932b20425cdea3b7682fbc52425bdd27d1ed7e2d9084aa353ee877",
          "blockHash": "0xf5b5f269de3a5015d02f4d2a6699a3c29f2645a021179833e6955a86908bcb96",
          "blockNumber": "0x9b1",
          "transactionHash": "0xab7bea85456efa2373d9dbfbb97a21690d556c32babab8241ef1eb35bddfd284",
          "transactionIndex": "0x1",
          "logIndex": "0x1",
          "removed": false
        },
        {
          "address": "0x208dc31cd6042a09bbfddb31614a337a51b870ba",
          "topics": [
            "0xb6c5491cf83e09749b1a4dd6a9f07b0e925fcb0a915ac8c2b40e8ab28191c270"
          ],
          "data": "0x000000000000000000000000888ad8465869f4e7352a1ab386dc86ebf3b2bca0f5ee0b77c018880c83dad3ad0fde6c05b055120c4569dd926b9f0e73052269bc",
          "blockHash": "0xf5b5f269de3a5015d02f4d2a6699a3c29f2645a021179833e6955a86908bcb96",
          "blockNumber": "0x9b1",
          "transactionHash": "0xab7bea85456efa2373d9dbfbb97a21690d556c32babab8241ef1eb35bddfd284",
          "transactionIndex": "0x1",
          "logIndex": "0x2",
          "removed": false
        },
        {
          "address": "0x208dc31cd6042a09bbfddb31614a337a51b870ba",
          "topics": [
            "0xb6c5491cf83e09749b1a4dd6a9f07b0e925fcb0a915ac8c2b40e8ab28191c270"
          ],
          "data": "0x00000000000000000000000090caf46da0655ee5b3ecb8767e180eac95b58edddf34cdf3e44e8c48d09c0b08364ddc32fc45e2dd06d1243bf06ac582e14dbc10",
          "blockHash": "0xf5b5f269de3a5015d02f4d2a6699a3c29f2645a021179833e6955a86908bcb96",
          "blockNumber": "0x9b1",
          "transactionHash": "0xab7bea85456efa2373d9dbfbb97a21690d556c32babab8241ef1eb35bddfd284",
          "transactionIndex": "0x1",
          "logIndex": "0x3",
          "removed": false
        },
        {
          "address": "0x3cf47ad0f040dff1208e649c8f8e23e6b5a08916",
          "topics": [
            "0xa79e548192961afcb32b8cd0e48a4b05e59fbe26630ff69f17834c0ec528ade4",
            "0x000000003cf47ad0f040dff1208e649c8f8e23e6b5a0891600000000000001c5",
            "0x0000000000000000000000000ada994863fed5f91b54cdaea2a1ffc8fd67ac1b"
          ],
          "data": "0x00000000000000000000000000000000000000000000000000000000000000a00000000000000000000000000000000000000000000000000000000000aa36a7000000000000000000000000eeeeeeeeeeeeeeeeeeeeeeeeeeeeeeeeeeeeeeee0000000000000000000000000000000000000000000000000de0b6b3a764000000000000000000000000000000000000000000000000000000000000000000000000000000000000000000000000000000000000000000000000000000000002000000000000000000000000000000000000000000000000000000000000004000000000000000000000000000000000000000000000000000000000000002800000000000000000000000000000000000000000000000000000000000066eee000000000000000000000000804af74b5b3865872bef354e286124253782fa9500000000000000000000000000000000000000000000000000000000000000c00000000000000000000000000000000000000000000000000000000000000001000000000000000000000000000000000000000000000000000000000098968000000000000000000000000000000000000000000000000000000000000001e00000000000000000000000000000000000000000000000000000000000000100052c5084fe706ebe8c68d6d3b12c842472c22f7412e431e228a4166bc85922d0000000000000000000000000000000000000000000000000000000000000004000000000000000000000000000000000000000000000000000000000000000a0000000000000000000000000e6bba0fa886f758610512f909262d815d708884d0000000000000000000000000000000000000000000000000000000000000040000000000000000000000000000000000000000000000000000000000000002442966c6800000000000000000000000000000000000000000000000000000000000003e800000000000000000000000000000000000000000000000000000000000000000000000000000000000000000000000000000000000000000000000200000000000000000000000052b1688677bd219a9b527825709eecaaedc6bfb5000000000000000000000000888ad8465869f4e7352a1ab386dc86ebf3b2bca00000000000000000000000000000000000000000000000000000000000014a340000000000000000000000009edfb162b725cf6d628d68af200cae8b624111ed00000000000000000000000000000000000000000000000000000000000000c00000000000000000000000000000000000000000000000000000000000000001000000000000000000000000000000000000000000000000000000000098968000000000000000000000000000000000000000000000000000000000000002000000000000000000000000000000000000000000000000000000000000000120052c5084fe706ebe8c68d6d3b12c842472c22f7412e431e228a4166bc85922d0000000000000000000000000000000000000000000000000000000000000004000000000000000000000000000000000000000000000000000000000000000c000000000000000000000000052dc3dcfee6a0cfa1b75cbf93208dec5fb6905660000000000000000000000000000000000000000000000000000000000000040000000000000000000000000000000000000000000000000000000000000004440c10f19000000000000000000000000372610bdcfa0531b40c8b27bb22a4e198ef0460400000000000000000000000000000000000000000000000000000000000003e8000000000000000000000000000000000000000000000000000000000000000000000000000000000000000000000000000000000000000000000002000000000000000000000000c2cab51cb68ae7d18af309321a809908abb507a600000000000000000000000090caf46da0655ee5b3ecb8767e180eac95b58edd",
          "blockHash": "0xf5b5f269de3a5015d02f4d2a6699a3c29f2645a021179833e6955a86908bcb96",
          "blockNumber": "0x9b1",
          "transactionHash": "0xab7bea85456efa2373d9dbfbb97a21690d556c32babab8241ef1eb35bddfd284",
          "transactionIndex": "0x1",
          "logIndex": "0x4",
          "removed": false
        }
      ],
      "logsBloom": "0x00000000000000000000000000000000000000000000800000010002000000000000000000000000020000000400000000000002000000000000000000000000000000000000000000000000000000000000020000000000004000000000000000000000000000000100000000020000000000000000000000000800000000000000200000000000000000000000000000000000000000008000040000000000200000000000000000000000000000000000000000000000000000000000000000000000000000000000000000000000000000000000000000000000200000010000000000000000000000000000000000000000000000000002000000000000",
      "type": "0x2",
      "transactionHash": "0xab7bea85456efa2373d9dbfbb97a21690d556c32babab8241ef1eb35bddfd284",
      "transactionIndex": "0x1",
      "blockHash": "0xf5b5f269de3a5015d02f4d2a6699a3c29f2645a021179833e6955a86908bcb96",
      "blockNumber": "0x9b1",
      "gasUsed": "0x525184",
      "effectiveGasPrice": "0x989680",
      "from": "0x372610bdcfa0531b40c8b27bb22a4e198ef04604",
      "to": "0x0ada994863fed5f91b54cdaea2a1ffc8fd67ac1b",
      "contractAddress": null,
      "gasUsedForL1": "0x7aebb",
      "l1BlockNumber": "0x6e5d88"
    }
  ],
  "libraries": [],
  "pending": [],
  "returns": {},
  "timestamp": 1733612206,
  "chain": 7625382,
  "commit": "e150f3f"
}