{
  "transactions": [
    {
      "hash": "0xfe7db40796047c152187157771b33a7aaf08d5a155db3791ae1626b8b5a51716",
      "transactionType": "CALL",
      "contractName": null,
      "contractAddress": "0x0ada994863fed5f91b54cdaea2a1ffc8fd67ac1b",
      "function": "transfer(uint256,address,address)",
      "arguments": [
        "1000",
        "0x9F50f77708353535d41E876C98A59b024f118B74",
        "0xECff1b08b0B99fA9464AcbCAdadB1CF82d6C7E6E"
      ],
      "transaction": {
        "from": "0x372610bdcfa0531b40c8b27bb22a4e198ef04604",
        "to": "0x0ada994863fed5f91b54cdaea2a1ffc8fd67ac1b",
        "value": "0x0",
        "input": "0xccb570e300000000000000000000000000000000000000000000000000000000000003e80000000000000000000000009f50f77708353535d41e876c98a59b024f118b74000000000000000000000000ecff1b08b0b99fa9464acbcadadb1cf82d6c7e6e",
        "nonce": "0x18",
        "chainId": "0x745aa6"
      },
      "additionalContracts": [],
      "isFixedGasLimit": false
    }
  ],
  "receipts": [
    {
      "status": "0x1",
      "cumulativeGasUsed": "0x53a68c",
      "logs": [
        {
          "address": "0x208dc31cd6042a09bbfddb31614a337a51b870ba",
          "topics": [
            "0xb6c5491cf83e09749b1a4dd6a9f07b0e925fcb0a915ac8c2b40e8ab28191c270"
          ],
          "data": "0x0000000000000000000000005f5bdcdcbc9a3643501d6241fe13a1cac1f6744cb70f84622a1511baaccde2c156ba6130f387d8fcb24ec91f7136865364447ab8",
          "blockHash": "0xe808fbc65eb79544ac3163f852d169d06ce52bf254701723130610f294262d8d",
          "blockNumber": "0x9ac",
          "transactionHash": "0xfe7db40796047c152187157771b33a7aaf08d5a155db3791ae1626b8b5a51716",
          "transactionIndex": "0x1",
          "logIndex": "0x0",
          "removed": false
        },
        {
          "address": "0x208dc31cd6042a09bbfddb31614a337a51b870ba",
          "topics": [
            "0xb6c5491cf83e09749b1a4dd6a9f07b0e925fcb0a915ac8c2b40e8ab28191c270"
          ],
          "data": "0x0000000000000000000000001fca0465764e4a8a6b37670a7dcee18fea0304ffe5e2bdd27d419267ccb133fc0ca8b06501ec7fb2e0d2c40cc9e3d3224a726f21",
          "blockHash": "0xe808fbc65eb79544ac3163f852d169d06ce52bf254701723130610f294262d8d",
          "blockNumber": "0x9ac",
          "transactionHash": "0xfe7db40796047c152187157771b33a7aaf08d5a155db3791ae1626b8b5a51716",
          "transactionIndex": "0x1",
          "logIndex": "0x1",
          "removed": false
        },
        {
          "address": "0x208dc31cd6042a09bbfddb31614a337a51b870ba",
          "topics": [
            "0xb6c5491cf83e09749b1a4dd6a9f07b0e925fcb0a915ac8c2b40e8ab28191c270"
          ],
          "data": "0x0000000000000000000000007f72fcd441d6d68a4b84cb4df54a3c454e78fd427cc95da036666b5da643b91221f7d5ed1472b018970cdd6c8630bd0b4c8c321e",
          "blockHash": "0xe808fbc65eb79544ac3163f852d169d06ce52bf254701723130610f294262d8d",
          "blockNumber": "0x9ac",
          "transactionHash": "0xfe7db40796047c152187157771b33a7aaf08d5a155db3791ae1626b8b5a51716",
          "transactionIndex": "0x1",
          "logIndex": "0x2",
          "removed": false
        },
        {
          "address": "0x208dc31cd6042a09bbfddb31614a337a51b870ba",
          "topics": [
            "0xb6c5491cf83e09749b1a4dd6a9f07b0e925fcb0a915ac8c2b40e8ab28191c270"
          ],
          "data": "0x0000000000000000000000005ad47bd277729a0bbd86b85580bb0fd388701566858ae5c87ee3ceef1f679ebb2d9fc6399d04bde630be9454ffbdd7637414f566",
          "blockHash": "0xe808fbc65eb79544ac3163f852d169d06ce52bf254701723130610f294262d8d",
          "blockNumber": "0x9ac",
          "transactionHash": "0xfe7db40796047c152187157771b33a7aaf08d5a155db3791ae1626b8b5a51716",
          "transactionIndex": "0x1",
          "logIndex": "0x3",
          "removed": false
        },
        {
          "address": "0x3cf47ad0f040dff1208e649c8f8e23e6b5a08916",
          "topics": [
            "0xa79e548192961afcb32b8cd0e48a4b05e59fbe26630ff69f17834c0ec528ade4",
            "0x000000003cf47ad0f040dff1208e649c8f8e23e6b5a0891600000000000001c4",
            "0x0000000000000000000000000ada994863fed5f91b54cdaea2a1ffc8fd67ac1b"
          ],
          "data": "0x00000000000000000000000000000000000000000000000000000000000000a00000000000000000000000000000000000000000000000000000000000aa36a7000000000000000000000000eeeeeeeeeeeeeeeeeeeeeeeeeeeeeeeeeeeeeeee0000000000000000000000000000000000000000000000000de0b6b3a764000000000000000000000000000000000000000000000000000000000000000000000000000000000000000000000000000000000000000000000000000000000002000000000000000000000000000000000000000000000000000000000000004000000000000000000000000000000000000000000000000000000000000002800000000000000000000000000000000000000000000000000000000000066eee000000000000000000000000804af74b5b3865872bef354e286124253782fa9500000000000000000000000000000000000000000000000000000000000000c00000000000000000000000000000000000000000000000000000000000000001000000000000000000000000000000000000000000000000000000000098968000000000000000000000000000000000000000000000000000000000000001e00000000000000000000000000000000000000000000000000000000000000100052c5084fe706ebe8c68d6d3b12c842472c22f7412e431e228a4166bc85922d0000000000000000000000000000000000000000000000000000000000000004000000000000000000000000000000000000000000000000000000000000000a0000000000000000000000000e6bba0fa886f758610512f909262d815d708884d0000000000000000000000000000000000000000000000000000000000000040000000000000000000000000000000000000000000000000000000000000002442966c6800000000000000000000000000000000000000000000000000000000000003e80000000000000000000000000000000000000000000000000000000000000000000000000000000000000000000000000000000000000000000000020000000000000000000000005f5bdcdcbc9a3643501d6241fe13a1cac1f6744c0000000000000000000000007f72fcd441d6d68a4b84cb4df54a3c454e78fd420000000000000000000000000000000000000000000000000000000000014a340000000000000000000000009edfb162b725cf6d628d68af200cae8b624111ed00000000000000000000000000000000000000000000000000000000000000c00000000000000000000000000000000000000000000000000000000000000001000000000000000000000000000000000000000000000000000000000098968000000000000000000000000000000000000000000000000000000000000002000000000000000000000000000000000000000000000000000000000000000120052c5084fe706ebe8c68d6d3b12c842472c22f7412e431e228a4166bc85922d0000000000000000000000000000000000000000000000000000000000000004000000000000000000000000000000000000000000000000000000000000000c000000000000000000000000052dc3dcfee6a0cfa1b75cbf93208dec5fb6905660000000000000000000000000000000000000000000000000000000000000040000000000000000000000000000000000000000000000000000000000000004440c10f19000000000000000000000000372610bdcfa0531b40c8b27bb22a4e198ef0460400000000000000000000000000000000000000000000000000000000000003e80000000000000000000000000000000000000000000000000000000000000000000000000000000000000000000000000000000000000000000000020000000000000000000000001fca0465764e4a8a6b37670a7dcee18fea0304ff0000000000000000000000005ad47bd277729a0bbd86b85580bb0fd388701566",
          "blockHash": "0xe808fbc65eb79544ac3163f852d169d06ce52bf254701723130610f294262d8d",
          "blockNumber": "0x9ac",
          "transactionHash": "0xfe7db40796047c152187157771b33a7aaf08d5a155db3791ae1626b8b5a51716",
          "transactionIndex": "0x1",
          "logIndex": "0x4",
          "removed": false
        }
      ],
      "logsBloom": "0x00000000000000000000000000000000000000000000000000000002000000000000000000000000020000000400000000000002000000000000000000000000000000000000000100000000000000000000000000000000004000000000000000000000000000000100000000020000000000000000000000000800000000000000200000000000000000000000000000000000000010008000040000000000200000000000000000000000000000000000000000000000000000000000004000000000000000000000000000000000000000000000000000000000200000010000000000000000000000000000000000000000000000000002000000000000",
      "type": "0x2",
      "transactionHash": "0xfe7db40796047c152187157771b33a7aaf08d5a155db3791ae1626b8b5a51716",
      "transactionIndex": "0x1",
      "blockHash": "0xe808fbc65eb79544ac3163f852d169d06ce52bf254701723130610f294262d8d",
      "blockNumber": "0x9ac",
      "gasUsed": "0x53a68c",
      "effectiveGasPrice": "0x989680",
      "from": "0x372610bdcfa0531b40c8b27bb22a4e198ef04604",
      "to": "0x0ada994863fed5f91b54cdaea2a1ffc8fd67ac1b",
      "contractAddress": null,
      "gasUsedForL1": "0x7aebb",
      "l1BlockNumber": "0x6e5d6f"
    }
  ],
  "libraries": [],
  "pending": [],
  "returns": {},
  "timestamp": 1733611881,
  "chain": 7625382,
  "commit": "e150f3f"
}