{
  "transactions": [
    {
      "hash": "0x0e33eb0d5d93cfa9f6319f6258a4efaa3fbec2d440616a98842efc93e71f1f1b",
      "transactionType": "CALL",
      "contractName": null,
      "contractAddress": "0x0ada994863fed5f91b54cdaea2a1ffc8fd67ac1b",
      "function": "transfer(uint256,address,address)",
      "arguments": [
        "1000",
        "0x9F50f77708353535d41E876C98A59b024f118B74",
        "0xECff1b08b0B99fA9464AcbCAdadB1CF82d6C7E6E"
      ],
      "transaction": {
        "from": "0x372610bdcfa0531b40c8b27bb22a4e198ef04604",
        "to": "0x0ada994863fed5f91b54cdaea2a1ffc8fd67ac1b",
        "value": "0x0",
        "input": "0xccb570e300000000000000000000000000000000000000000000000000000000000003e80000000000000000000000009f50f77708353535d41e876c98a59b024f118b74000000000000000000000000ecff1b08b0b99fa9464acbcadadb1cf82d6c7e6e",
        "nonce": "0x17",
        "chainId": "0x745aa6"
      },
      "additionalContracts": [],
      "isFixedGasLimit": false
    }
  ],
  "receipts": [
    {
      "status": "0x1",
      "cumulativeGasUsed": "0x53a2b4",
      "logs": [
        {
          "address": "0x208dc31cd6042a09bbfddb31614a337a51b870ba",
          "topics": [
            "0xb6c5491cf83e09749b1a4dd6a9f07b0e925fcb0a915ac8c2b40e8ab28191c270"
          ],
          "data": "0x000000000000000000000000b7050374945de613a2e29ae3c3aa17185da05f0050cc99cb1a468be59becc35c473a4eab6d824826340d55d522acc9ab70ad53ec",
          "blockHash": "0xe7240481a290b8f8b65e1531ebb6b0cf908509b406b1727a29065043867d2952",
          "blockNumber": "0x96c",
          "transactionHash": "0x0e33eb0d5d93cfa9f6319f6258a4efaa3fbec2d440616a98842efc93e71f1f1b",
          "transactionIndex": "0x1",
          "logIndex": "0x0",
          "removed": false
        },
        {
          "address": "0x208dc31cd6042a09bbfddb31614a337a51b870ba",
          "topics": [
            "0xb6c5491cf83e09749b1a4dd6a9f07b0e925fcb0a915ac8c2b40e8ab28191c270"
          ],
          "data": "0x000000000000000000000000707346e338d8ed1b5e9f86161e06f8526a809ee4a50468d99fc45541a8a0e493aaf3fbc8f0a276863329c72e15cba800c58430ae",
          "blockHash": "0xe7240481a290b8f8b65e1531ebb6b0cf908509b406b1727a29065043867d2952",
          "blockNumber": "0x96c",
          "transactionHash": "0x0e33eb0d5d93cfa9f6319f6258a4efaa3fbec2d440616a98842efc93e71f1f1b",
          "transactionIndex": "0x1",
          "logIndex": "0x1",
          "removed": false
        },
        {
          "address": "0x208dc31cd6042a09bbfddb31614a337a51b870ba",
          "topics": [
            "0xb6c5491cf83e09749b1a4dd6a9f07b0e925fcb0a915ac8c2b40e8ab28191c270"
          ],
          "data": "0x000000000000000000000000dffd478524c6b684e5c76ae754a3d4eac8f8d6ee08edca11bce4fec4e9f06bbc38dadc48bad5a99aa54cd54615ca3a87c4b711ed",
          "blockHash": "0xe7240481a290b8f8b65e1531ebb6b0cf908509b406b1727a29065043867d2952",
          "blockNumber": "0x96c",
          "transactionHash": "0x0e33eb0d5d93cfa9f6319f6258a4efaa3fbec2d440616a98842efc93e71f1f1b",
          "transactionIndex": "0x1",
          "logIndex": "0x2",
          "removed": false
        },
        {
          "address": "0x208dc31cd6042a09bbfddb31614a337a51b870ba",
          "topics": [
            "0xb6c5491cf83e09749b1a4dd6a9f07b0e925fcb0a915ac8c2b40e8ab28191c270"
          ],
          "data": "0x0000000000000000000000001d8fadf5a27595c411c9ffbe43112b7d400f07ae24cf643476f1c9301257e0707a8bb0650c31b54a884b5e225d91a600c797619e",
          "blockHash": "0xe7240481a290b8f8b65e1531ebb6b0cf908509b406b1727a29065043867d2952",
          "blockNumber": "0x96c",
          "transactionHash": "0x0e33eb0d5d93cfa9f6319f6258a4efaa3fbec2d440616a98842efc93e71f1f1b",
          "transactionIndex": "0x1",
          "logIndex": "0x3",
          "removed": false
        },
        {
          "address": "0x3cf47ad0f040dff1208e649c8f8e23e6b5a08916",
          "topics": [
            "0xa79e548192961afcb32b8cd0e48a4b05e59fbe26630ff69f17834c0ec528ade4",
            "0x000000003cf47ad0f040dff1208e649c8f8e23e6b5a0891600000000000001b4",
            "0x0000000000000000000000000ada994863fed5f91b54cdaea2a1ffc8fd67ac1b"
          ],
          "data": "0x00000000000000000000000000000000000000000000000000000000000000a00000000000000000000000000000000000000000000000000000000000aa36a7000000000000000000000000eeeeeeeeeeeeeeeeeeeeeeeeeeeeeeeeeeeeeeee0000000000000000000000000000000000000000000000000de0b6b3a764000000000000000000000000000000000000000000000000000000000000000000000000000000000000000000000000000000000000000000000000000000000002000000000000000000000000000000000000000000000000000000000000004000000000000000000000000000000000000000000000000000000000000002800000000000000000000000000000000000000000000000000000000000066eee000000000000000000000000804af74b5b3865872bef354e286124253782fa9500000000000000000000000000000000000000000000000000000000000000c00000000000000000000000000000000000000000000000000000000000000001000000000000000000000000000000000000000000000000000000000098968000000000000000000000000000000000000000000000000000000000000001e00000000000000000000000000000000000000000000000000000000000000100052c5084fe706ebe8c68d6d3b12c842472c22f7412e431e228a4166bc85922d0000000000000000000000000000000000000000000000000000000000000004000000000000000000000000000000000000000000000000000000000000000a0000000000000000000000000e6bba0fa886f758610512f909262d815d708884d0000000000000000000000000000000000000000000000000000000000000040000000000000000000000000000000000000000000000000000000000000002442966c6800000000000000000000000000000000000000000000000000000000000003e8000000000000000000000000000000000000000000000000000000000000000000000000000000000000000000000000000000000000000000000002000000000000000000000000b7050374945de613a2e29ae3c3aa17185da05f00000000000000000000000000dffd478524c6b684e5c76ae754a3d4eac8f8d6ee0000000000000000000000000000000000000000000000000000000000014a340000000000000000000000009edfb162b725cf6d628d68af200cae8b624111ed00000000000000000000000000000000000000000000000000000000000000c00000000000000000000000000000000000000000000000000000000000000001000000000000000000000000000000000000000000000000000000000098968000000000000000000000000000000000000000000000000000000000000002000000000000000000000000000000000000000000000000000000000000000120052c5084fe706ebe8c68d6d3b12c842472c22f7412e431e228a4166bc85922d0000000000000000000000000000000000000000000000000000000000000004000000000000000000000000000000000000000000000000000000000000000c000000000000000000000000052dc3dcfee6a0cfa1b75cbf93208dec5fb6905660000000000000000000000000000000000000000000000000000000000000040000000000000000000000000000000000000000000000000000000000000004440c10f19000000000000000000000000372610bdcfa0531b40c8b27bb22a4e198ef0460400000000000000000000000000000000000000000000000000000000000003e8000000000000000000000000000000000000000000000000000000000000000000000000000000000000000000000000000000000000000000000002000000000000000000000000707346e338d8ed1b5e9f86161e06f8526a809ee40000000000000000000000001d8fadf5a27595c411c9ffbe43112b7d400f07ae",
          "blockHash": "0xe7240481a290b8f8b65e1531ebb6b0cf908509b406b1727a29065043867d2952",
          "blockNumber": "0x96c",
          "transactionHash": "0x0e33eb0d5d93cfa9f6319f6258a4efaa3fbec2d440616a98842efc93e71f1f1b",
          "transactionIndex": "0x1",
          "logIndex": "0x4",
          "removed": false
        }
      ],
      "logsBloom": "0x00000000000000000000000000000000000000000000000000000002000000000000000000000000020000000400000000000002000000000000000000000000000000000000000000000000000000000000000000000000004000000000000000000000000000000100000000020000000000000000000000000800000000000000200000000000000000000000000000000000000000008000040000000000200000000000000000000000000000000000000000008000000000000000000000000000000000080000000000000000000000000000000000000000200000010000000000000000000000000001000000000000000000000002000000000000",
      "type": "0x2",
      "transactionHash": "0x0e33eb0d5d93cfa9f6319f6258a4efaa3fbec2d440616a98842efc93e71f1f1b",
      "transactionIndex": "0x1",
      "blockHash": "0xe7240481a290b8f8b65e1531ebb6b0cf908509b406b1727a29065043867d2952",
      "blockNumber": "0x96c",
      "gasUsed": "0x53a2b4",
      "effectiveGasPrice": "0x989680",
      "from": "0x372610bdcfa0531b40c8b27bb22a4e198ef04604",
      "to": "0x0ada994863fed5f91b54cdaea2a1ffc8fd67ac1b",
      "contractAddress": null,
      "gasUsedForL1": "0x7ebbd",
      "l1BlockNumber": "0x6e5c5d"
    }
  ],
  "libraries": [],
  "pending": [],
  "returns": {},
  "timestamp": 1733608504,
  "chain": 7625382,
  "commit": "e150f3f"
}