{
  "transactions": [
    {
      "hash": "0x6cd0d52cf56aa71bfc437072149539b45344712479d94610cd48961f044a04cd",
      "transactionType": "CALL",
      "contractName": null,
      "contractAddress": "0x2d4fef9bfd4c288b15e98b2c80e47ed2c9f82073",
      "function": "transfer(uint256,address,address)",
      "arguments": [
        "1000",
        "0xa5FDc87b6bFAdAB5f9d475955fe454E60069eb0b",
        "0x80134EADD9492f86B3B3cECD5cC499e4CceA2171"
      ],
      "transaction": {
        "from": "0x372610bdcfa0531b40c8b27bb22a4e198ef04604",
        "to": "0x2d4fef9bfd4c288b15e98b2c80e47ed2c9f82073",
        "value": "0x0",
        "input": "0xccb570e300000000000000000000000000000000000000000000000000000000000003e8000000000000000000000000a5fdc87b6bfadab5f9d475955fe454e60069eb0b00000000000000000000000080134eadd9492f86b3b3cecd5cc499e4ccea2171",
        "nonce": "0x1e",
        "chainId": "0x745aa6"
      },
      "additionalContracts": [],
      "isFixedGasLimit": false
    }
  ],
  "receipts": [
    {
      "status": "0x1",
      "cumulativeGasUsed": "0x52e3f2",
      "logs": [
        {
          "address": "0x208dc31cd6042a09bbfddb31614a337a51b870ba",
          "topics": [
            "0xb6c5491cf83e09749b1a4dd6a9f07b0e925fcb0a915ac8c2b40e8ab28191c270"
          ],
          "data": "0x00000000000000000000000099fb17e2fde45e7772b1d9eb7e3ce9b19bc9a6d6bf36fc0f6499d836ead6b2e493b2cb1860b71e80631bcfd680bb27be85cb7cab",
          "blockHash": "0x15e71dfbd4fd0a610b1f71d379c907fd2cc230d294a7e88eeb512a40e125c08b",
          "blockNumber": "0x9d6",
          "transactionHash": "0x6cd0d52cf56aa71bfc437072149539b45344712479d94610cd48961f044a04cd",
          "transactionIndex": "0x1",
          "logIndex": "0x0",
          "removed": false
        },
        {
          "address": "0x208dc31cd6042a09bbfddb31614a337a51b870ba",
          "topics": [
            "0xb6c5491cf83e09749b1a4dd6a9f07b0e925fcb0a915ac8c2b40e8ab28191c270"
          ],
          "data": "0x0000000000000000000000009254ff390a9bb6fbd6bfded0cb43df85f16277e7e1cad37f7d48a283f511dc6c264b7615e156189b972a563be4e8c9087a5f344d",
          "blockHash": "0x15e71dfbd4fd0a610b1f71d379c907fd2cc230d294a7e88eeb512a40e125c08b",
          "blockNumber": "0x9d6",
          "transactionHash": "0x6cd0d52cf56aa71bfc437072149539b45344712479d94610cd48961f044a04cd",
          "transactionIndex": "0x1",
          "logIndex": "0x1",
          "removed": false
        },
        {
          "address": "0x208dc31cd6042a09bbfddb31614a337a51b870ba",
          "topics": [
            "0xb6c5491cf83e09749b1a4dd6a9f07b0e925fcb0a915ac8c2b40e8ab28191c270"
          ],
          "data": "0x00000000000000000000000092ea979f1a914d9f8d91616fa9c36231a0cf63db1770587fb2c489059eec019bc7cbdc85061faddf7b5ee542da2d24ec52b90786",
          "blockHash": "0x15e71dfbd4fd0a610b1f71d379c907fd2cc230d294a7e88eeb512a40e125c08b",
          "blockNumber": "0x9d6",
          "transactionHash": "0x6cd0d52cf56aa71bfc437072149539b45344712479d94610cd48961f044a04cd",
          "transactionIndex": "0x1",
          "logIndex": "0x2",
          "removed": false
        },
        {
          "address": "0x208dc31cd6042a09bbfddb31614a337a51b870ba",
          "topics": [
            "0xb6c5491cf83e09749b1a4dd6a9f07b0e925fcb0a915ac8c2b40e8ab28191c270"
          ],
          "data": "0x000000000000000000000000199dea7206fca6b2c36042a14b37788e3239c0dc55568c1832f1e6ae1738b57e061d266976b7a80fb620e654d8c128be4061bc6c",
          "blockHash": "0x15e71dfbd4fd0a610b1f71d379c907fd2cc230d294a7e88eeb512a40e125c08b",
          "blockNumber": "0x9d6",
          "transactionHash": "0x6cd0d52cf56aa71bfc437072149539b45344712479d94610cd48961f044a04cd",
          "transactionIndex": "0x1",
          "logIndex": "0x3",
          "removed": false
        },
        {
          "address": "0x3cf47ad0f040dff1208e649c8f8e23e6b5a08916",
          "topics": [
            "0xa79e548192961afcb32b8cd0e48a4b05e59fbe26630ff69f17834c0ec528ade4",
            "0x000000003cf47ad0f040dff1208e649c8f8e23e6b5a0891600000000000001cb",
            "0x0000000000000000000000002d4fef9bfd4c288b15e98b2c80e47ed2c9f82073"
          ],
          "data": "0x00000000000000000000000000000000000000000000000000000000000000a00000000000000000000000000000000000000000000000000000000000aa36a7000000000000000000000000eeeeeeeeeeeeeeeeeeeeeeeeeeeeeeeeeeeeeeee0000000000000000000000000000000000000000000000000de0b6b3a764000000000000000000000000000000000000000000000000000000000000000000000000000000000000000000000000000000000000000000000000000000000002000000000000000000000000000000000000000000000000000000000000004000000000000000000000000000000000000000000000000000000000000002800000000000000000000000000000000000000000000000000000000000066eee000000000000000000000000804af74b5b3865872bef354e286124253782fa9500000000000000000000000000000000000000000000000000000000000000c00000000000000000000000000000000000000000000000000000000000000001000000000000000000000000000000000000000000000000000000000098968000000000000000000000000000000000000000000000000000000000000001e00000000000000000000000000000000000000000000000000000000000000100052c5084fe706ebe8c68d6d3b12c842472c22f7412e431e228a4166bc85922d0000000000000000000000000000000000000000000000000000000000000004000000000000000000000000000000000000000000000000000000000000000a0000000000000000000000000921a72655cbd4d3a5b032346bdfadb13941618e20000000000000000000000000000000000000000000000000000000000000040000000000000000000000000000000000000000000000000000000000000002442966c6800000000000000000000000000000000000000000000000000000000000003e800000000000000000000000000000000000000000000000000000000000000000000000000000000000000000000000000000000000000000000000200000000000000000000000099fb17e2fde45e7772b1d9eb7e3ce9b19bc9a6d600000000000000000000000092ea979f1a914d9f8d91616fa9c36231a0cf63db0000000000000000000000000000000000000000000000000000000000014a340000000000000000000000009edfb162b725cf6d628d68af200cae8b624111ed00000000000000000000000000000000000000000000000000000000000000c00000000000000000000000000000000000000000000000000000000000000001000000000000000000000000000000000000000000000000000000000098968000000000000000000000000000000000000000000000000000000000000002000000000000000000000000000000000000000000000000000000000000000120052c5084fe706ebe8c68d6d3b12c842472c22f7412e431e228a4166bc85922d0000000000000000000000000000000000000000000000000000000000000004000000000000000000000000000000000000000000000000000000000000000c00000000000000000000000004211345828af33d71ea80ace9dce9a4d032687810000000000000000000000000000000000000000000000000000000000000040000000000000000000000000000000000000000000000000000000000000004440c10f19000000000000000000000000372610bdcfa0531b40c8b27bb22a4e198ef0460400000000000000000000000000000000000000000000000000000000000003e80000000000000000000000000000000000000000000000000000000000000000000000000000000000000000000000000000000000000000000000020000000000000000000000009254ff390a9bb6fbd6bfded0cb43df85f16277e7000000000000000000000000199dea7206fca6b2c36042a14b37788e3239c0dc",
          "blockHash": "0x15e71dfbd4fd0a610b1f71d379c907fd2cc230d294a7e88eeb512a40e125c08b",
          "blockNumber": "0x9d6",
          "transactionHash": "0x6cd0d52cf56aa71bfc437072149539b45344712479d94610cd48961f044a04cd",
          "transactionIndex": "0x1",
          "logIndex": "0x4",
          "removed": false
        }
      ],
      "logsBloom": "0x00000000000000000000000000000000000000000004000002000002000000000000000000000000020000000400000000000002000000000000000000000000000000000000000000000000000000000000000000000000010000000000000000000000000000000100000200000000010000000000000000000800000000000000200000000000000000000000000000000000000000008000000000000000200000000000000000000000000000000000000000000000000000000000000000000000000000000000000000000000000000000000000000000000200000010000000000000000000000000000000100000000000000000002000000000000",
      "type": "0x2",
      "transactionHash": "0x6cd0d52cf56aa71bfc437072149539b45344712479d94610cd48961f044a04cd",
      "transactionIndex": "0x1",
      "blockHash": "0x15e71dfbd4fd0a610b1f71d379c907fd2cc230d294a7e88eeb512a40e125c08b",
      "blockNumber": "0x9d6",
      "gasUsed": "0x52e3f2",
      "effectiveGasPrice": "0x989680",
      "from": "0x372610bdcfa0531b40c8b27bb22a4e198ef04604",
      "to": "0x2d4fef9bfd4c288b15e98b2c80e47ed2c9f82073",
      "contractAddress": null,
      "gasUsedForL1": "0x7aebb",
      "l1BlockNumber": "0x6e5dc9"
    }
  ],
  "libraries": [],
  "pending": [],
  "returns": {},
  "timestamp": 1733613072,
  "chain": 7625382,
  "commit": "e150f3f"
}