{
  "transactions": [
    {
      "hash": "0x403d118a75bc09bd44f7938c234d6480faa7cfe9f5f7b85ceb817a157677101d",
      "transactionType": "CALL",
      "contractName": null,
      "contractAddress": "0x01009de8100d1b98ebfacf75bed8635f65dcba59",
      "function": "transfer(uint256,address,address)",
      "arguments": [
        "1000",
        "0xc026fD8628b998578F28a93424da64fe1cbfFd5D",
        "0x3C7090297B42104F285D083B8DbeF7e85EC84F77"
      ],
      "transaction": {
        "from": "0x372610bdcfa0531b40c8b27bb22a4e198ef04604",
        "to": "0x01009de8100d1b98ebfacf75bed8635f65dcba59",
        "value": "0x0",
        "input": "0xccb570e300000000000000000000000000000000000000000000000000000000000003e8000000000000000000000000c026fd8628b998578f28a93424da64fe1cbffd5d0000000000000000000000003c7090297b42104f285d083b8dbef7e85ec84f77",
        "nonce": "0x23",
        "chainId": "0x745aa6"
      },
      "additionalContracts": [],
      "isFixedGasLimit": false
    }
  ],
  "receipts": [
    {
      "status": "0x1",
      "cumulativeGasUsed": "0x53d364",
      "logs": [
        {
          "address": "0x208dc31cd6042a09bbfddb31614a337a51b870ba",
          "topics": [
            "0xb6c5491cf83e09749b1a4dd6a9f07b0e925fcb0a915ac8c2b40e8ab28191c270"
          ],
          "data": "0x000000000000000000000000d30bd8da727b235153b3994b9577cc9cd4e3457f008ed1b2a7d6b1a21b2a8aa9304999fa21e1b4c31b8a5d6b81c79c2d29040ac5",
          "blockHash": "0xc13f940ce6ad0aa0eb638fca2ca3c6b5bdf632a230589ab0a15752c134016956",
          "blockNumber": "0x9fb",
          "transactionHash": "0x403d118a75bc09bd44f7938c234d6480faa7cfe9f5f7b85ceb817a157677101d",
          "transactionIndex": "0x1",
          "logIndex": "0x0",
          "removed": false
        },
        {
          "address": "0x208dc31cd6042a09bbfddb31614a337a51b870ba",
          "topics": [
            "0xb6c5491cf83e09749b1a4dd6a9f07b0e925fcb0a915ac8c2b40e8ab28191c270"
          ],
          "data": "0x000000000000000000000000ab998b6056be76959463856f92211d6b1330febb1c8d5750245c149600717562c57aeee78df062a6582359ef3d93ab3161a05435",
          "blockHash": "0xc13f940ce6ad0aa0eb638fca2ca3c6b5bdf632a230589ab0a15752c134016956",
          "blockNumber": "0x9fb",
          "transactionHash": "0x403d118a75bc09bd44f7938c234d6480faa7cfe9f5f7b85ceb817a157677101d",
          "transactionIndex": "0x1",
          "logIndex": "0x1",
          "removed": false
        },
        {
          "address": "0x208dc31cd6042a09bbfddb31614a337a51b870ba",
          "topics": [
            "0xb6c5491cf83e09749b1a4dd6a9f07b0e925fcb0a915ac8c2b40e8ab28191c270"
          ],
          "data": "0x000000000000000000000000a0efb6f602cc6e4958187bf0c4056499e9a90a998caa78d25d70396fee27bcebdfb72e1339d0088c506cb57a8ab1341890c91366",
          "blockHash": "0xc13f940ce6ad0aa0eb638fca2ca3c6b5bdf632a230589ab0a15752c134016956",
          "blockNumber": "0x9fb",
          "transactionHash": "0x403d118a75bc09bd44f7938c234d6480faa7cfe9f5f7b85ceb817a157677101d",
          "transactionIndex": "0x1",
          "logIndex": "0x2",
          "removed": false
        },
        {
          "address": "0x208dc31cd6042a09bbfddb31614a337a51b870ba",
          "topics": [
            "0xb6c5491cf83e09749b1a4dd6a9f07b0e925fcb0a915ac8c2b40e8ab28191c270"
          ],
          "data": "0x0000000000000000000000009d2ddd5b8b44b41225071aeeb9876219b75322cfbea13658a9225fc5da618e51e3245995e2e1cd5feba22bf9ecaa1d96438fd337",
          "blockHash": "0xc13f940ce6ad0aa0eb638fca2ca3c6b5bdf632a230589ab0a15752c134016956",
          "blockNumber": "0x9fb",
          "transactionHash": "0x403d118a75bc09bd44f7938c234d6480faa7cfe9f5f7b85ceb817a157677101d",
          "transactionIndex": "0x1",
          "logIndex": "0x3",
          "removed": false
        },
        {
          "address": "0x3cf47ad0f040dff1208e649c8f8e23e6b5a08916",
          "topics": [
            "0xa79e548192961afcb32b8cd0e48a4b05e59fbe26630ff69f17834c0ec528ade4",
            "0x000000003cf47ad0f040dff1208e649c8f8e23e6b5a0891600000000000001d1",
            "0x00000000000000000000000001009de8100d1b98ebfacf75bed8635f65dcba59"
          ],
          "data": "0x00000000000000000000000000000000000000000000000000000000000000a00000000000000000000000000000000000000000000000000000000000014a34000000000000000000000000eeeeeeeeeeeeeeeeeeeeeeeeeeeeeeeeeeeeeeee0000000000000000000000000000000000000000000000000de0b6b3a764000000000000000000000000000000000000000000000000000000000000000000000000000000000000000000000000000000000000000000000000000000000002000000000000000000000000000000000000000000000000000000000000004000000000000000000000000000000000000000000000000000000000000002800000000000000000000000000000000000000000000000000000000000066eee000000000000000000000000804af74b5b3865872bef354e286124253782fa9500000000000000000000000000000000000000000000000000000000000000c00000000000000000000000000000000000000000000000000000000000000001000000000000000000000000000000000000000000000000000000000098968000000000000000000000000000000000000000000000000000000000000001e00000000000000000000000000000000000000000000000000000000000000100052c5084fe706ebe8c68d6d3b12c842472c22f7412e431e228a4166bc85922d0000000000000000000000000000000000000000000000000000000000000004000000000000000000000000000000000000000000000000000000000000000a00000000000000000000000001a49457cef8dd4d7b4cae98ce0348500627ef6540000000000000000000000000000000000000000000000000000000000000040000000000000000000000000000000000000000000000000000000000000002442966c6800000000000000000000000000000000000000000000000000000000000003e8000000000000000000000000000000000000000000000000000000000000000000000000000000000000000000000000000000000000000000000002000000000000000000000000d30bd8da727b235153b3994b9577cc9cd4e3457f000000000000000000000000a0efb6f602cc6e4958187bf0c4056499e9a90a990000000000000000000000000000000000000000000000000000000000014a340000000000000000000000009edfb162b725cf6d628d68af200cae8b624111ed00000000000000000000000000000000000000000000000000000000000000c00000000000000000000000000000000000000000000000000000000000000001000000000000000000000000000000000000000000000000000000000098968000000000000000000000000000000000000000000000000000000000000002000000000000000000000000000000000000000000000000000000000000000120052c5084fe706ebe8c68d6d3b12c842472c22f7412e431e228a4166bc85922d0000000000000000000000000000000000000000000000000000000000000004000000000000000000000000000000000000000000000000000000000000000c00000000000000000000000001f7ed624961fa35dd666635e736aa39d39f7f38d0000000000000000000000000000000000000000000000000000000000000040000000000000000000000000000000000000000000000000000000000000004440c10f19000000000000000000000000372610bdcfa0531b40c8b27bb22a4e198ef0460400000000000000000000000000000000000000000000000000000000000003e8000000000000000000000000000000000000000000000000000000000000000000000000000000000000000000000000000000000000000000000002000000000000000000000000ab998b6056be76959463856f92211d6b1330febb0000000000000000000000009d2ddd5b8b44b41225071aeeb9876219b75322cf",
          "blockHash": "0xc13f940ce6ad0aa0eb638fca2ca3c6b5bdf632a230589ab0a15752c134016956",
          "blockNumber": "0x9fb",
          "transactionHash": "0x403d118a75bc09bd44f7938c234d6480faa7cfe9f5f7b85ceb817a157677101d",
          "transactionIndex": "0x1",
          "logIndex": "0x4",
          "removed": false
        }
      ],
      "logsBloom": "0x0000000400000000000000000000000000000000000000000000000200000000000000000000000002000000040000000000000200000000000000000000000000000000000000000000000000000000000000000000000000000000000000000000000000000000010001000000000000000000000000000000080000000000000020000000800000000000000000000000000000000000800000000000000020000000000000000000000000000000000000000000000000000000000000000000000000000000010000000000000000000000000000000000000020000001000000000000000000000000000000000000000000000000000a000000080000",
      "type": "0x2",
      "transactionHash": "0x403d118a75bc09bd44f7938c234d6480faa7cfe9f5f7b85ceb817a157677101d",
      "transactionIndex": "0x1",
      "blockHash": "0xc13f940ce6ad0aa0eb638fca2ca3c6b5bdf632a230589ab0a15752c134016956",
      "blockNumber": "0x9fb",
      "gasUsed": "0x53d364",
      "effectiveGasPrice": "0x989680",
      "from": "0x372610bdcfa0531b40c8b27bb22a4e198ef04604",
      "to": "0x01009de8100d1b98ebfacf75bed8635f65dcba59",
      "contractAddress": null,
      "gasUsedForL1": "0x755fb",
      "l1BlockNumber": "0x6e5e53"
    }
  ],
  "libraries": [],
  "pending": [],
  "returns": {},
  "timestamp": 1733614847,
  "chain": 7625382,
  "commit": "e150f3f"
}