{
  "transactions": [
    {
      "hash": "0x667d10c5010a698b48419962b245b1051550deb2a229b5710a02978f9023474a",
      "transactionType": "CALL",
      "contractName": null,
      "contractAddress": "0x01009de8100d1b98ebfacf75bed8635f65dcba59",
      "function": "transfer(uint256,address,address)",
      "arguments": [
        "1000",
        "0xc026fD8628b998578F28a93424da64fe1cbfFd5D",
        "0x3C7090297B42104F285D083B8DbeF7e85EC84F77"
      ],
      "transaction": {
        "from": "0x372610bdcfa0531b40c8b27bb22a4e198ef04604",
        "to": "0x01009de8100d1b98ebfacf75bed8635f65dcba59",
        "value": "0x0",
        "input": "0xccb570e300000000000000000000000000000000000000000000000000000000000003e8000000000000000000000000c026fd8628b998578f28a93424da64fe1cbffd5d0000000000000000000000003c7090297b42104f285d083b8dbef7e85ec84f77",
        "nonce": "0x24",
        "chainId": "0x745aa6"
      },
      "additionalContracts": [],
      "isFixedGasLimit": false
    }
  ],
  "receipts": [
    {
      "status": "0x1",
      "cumulativeGasUsed": "0x51a22c",
      "logs": [
        {
          "address": "0x208dc31cd6042a09bbfddb31614a337a51b870ba",
          "topics": [
            "0xb6c5491cf83e09749b1a4dd6a9f07b0e925fcb0a915ac8c2b40e8ab28191c270"
          ],
          "data": "0x0000000000000000000000004a0a05fca0c0c2df0dff8c73b272412607b873a6921620fe88d721cd70d3d137640bf652c0badb93ca50520affd33cef79bb6619",
          "blockHash": "0x23b99709d3edd656a5f6ae7ce5a7abe44720582ec8ff25c68700e5632b3bf929",
          "blockNumber": "0xa53",
          "transactionHash": "0x667d10c5010a698b48419962b245b1051550deb2a229b5710a02978f9023474a",
          "transactionIndex": "0x1",
          "logIndex": "0x0",
          "removed": false
        },
        {
          "address": "0x208dc31cd6042a09bbfddb31614a337a51b870ba",
          "topics": [
            "0xb6c5491cf83e09749b1a4dd6a9f07b0e925fcb0a915ac8c2b40e8ab28191c270"
          ],
          "data": "0x0000000000000000000000000400319aafd07dfb55b41fbea0180cd5861f2392a67d02652529f538c303304fcd7993b8945539f140a47ee7908e9d49d3006861",
          "blockHash": "0x23b99709d3edd656a5f6ae7ce5a7abe44720582ec8ff25c68700e5632b3bf929",
          "blockNumber": "0xa53",
          "transactionHash": "0x667d10c5010a698b48419962b245b1051550deb2a229b5710a02978f9023474a",
          "transactionIndex": "0x1",
          "logIndex": "0x1",
          "removed": false
        },
        {
          "address": "0x208dc31cd6042a09bbfddb31614a337a51b870ba",
          "topics": [
            "0xb6c5491cf83e09749b1a4dd6a9f07b0e925fcb0a915ac8c2b40e8ab28191c270"
          ],
          "data": "0x000000000000000000000000f2186231df81f4f37a4eba30fc6d774dc5d327bfda15bf929ae240d20d25a9602a7bd23dc3a64288c7a2359bf2883dc6f7a0aac1",
          "blockHash": "0x23b99709d3edd656a5f6ae7ce5a7abe44720582ec8ff25c68700e5632b3bf929",
          "blockNumber": "0xa53",
          "transactionHash": "0x667d10c5010a698b48419962b245b1051550deb2a229b5710a02978f9023474a",
          "transactionIndex": "0x1",
          "logIndex": "0x2",
          "removed": false
        },
        {
          "address": "0x208dc31cd6042a09bbfddb31614a337a51b870ba",
          "topics": [
            "0xb6c5491cf83e09749b1a4dd6a9f07b0e925fcb0a915ac8c2b40e8ab28191c270"
          ],
          "data": "0x0000000000000000000000007aa58235470f92102dedf3c29ff910208c9e05da7ea9ffb90ad299a351d57b7c4af28b80a8bf4625cb54b1673bcc42e4926295ce",
          "blockHash": "0x23b99709d3edd656a5f6ae7ce5a7abe44720582ec8ff25c68700e5632b3bf929",
          "blockNumber": "0xa53",
          "transactionHash": "0x667d10c5010a698b48419962b245b1051550deb2a229b5710a02978f9023474a",
          "transactionIndex": "0x1",
          "logIndex": "0x3",
          "removed": false
        },
        {
          "address": "0x3cf47ad0f040dff1208e649c8f8e23e6b5a08916",
          "topics": [
            "0xa79e548192961afcb32b8cd0e48a4b05e59fbe26630ff69f17834c0ec528ade4",
            "0x000000003cf47ad0f040dff1208e649c8f8e23e6b5a0891600000000000001d7",
            "0x00000000000000000000000001009de8100d1b98ebfacf75bed8635f65dcba59"
          ],
          "data": "0x00000000000000000000000000000000000000000000000000000000000000a00000000000000000000000000000000000000000000000000000000000014a34000000000000000000000000eeeeeeeeeeeeeeeeeeeeeeeeeeeeeeeeeeeeeeee0000000000000000000000000000000000000000000000000de0b6b3a764000000000000000000000000000000000000000000000000000000000000000000000000000000000000000000000000000000000000000000000000000000000002000000000000000000000000000000000000000000000000000000000000004000000000000000000000000000000000000000000000000000000000000002800000000000000000000000000000000000000000000000000000000000066eee000000000000000000000000804af74b5b3865872bef354e286124253782fa9500000000000000000000000000000000000000000000000000000000000000c00000000000000000000000000000000000000000000000000000000000000001000000000000000000000000000000000000000000000000000000000098968000000000000000000000000000000000000000000000000000000000000001e00000000000000000000000000000000000000000000000000000000000000100052c5084fe706ebe8c68d6d3b12c842472c22f7412e431e228a4166bc85922d0000000000000000000000000000000000000000000000000000000000000004000000000000000000000000000000000000000000000000000000000000000a00000000000000000000000001a49457cef8dd4d7b4cae98ce0348500627ef6540000000000000000000000000000000000000000000000000000000000000040000000000000000000000000000000000000000000000000000000000000002442966c6800000000000000000000000000000000000000000000000000000000000003e80000000000000000000000000000000000000000000000000000000000000000000000000000000000000000000000000000000000000000000000020000000000000000000000004a0a05fca0c0c2df0dff8c73b272412607b873a6000000000000000000000000f2186231df81f4f37a4eba30fc6d774dc5d327bf0000000000000000000000000000000000000000000000000000000000014a340000000000000000000000009edfb162b725cf6d628d68af200cae8b624111ed00000000000000000000000000000000000000000000000000000000000000c00000000000000000000000000000000000000000000000000000000000000001000000000000000000000000000000000000000000000000000000000098968000000000000000000000000000000000000000000000000000000000000002000000000000000000000000000000000000000000000000000000000000000120052c5084fe706ebe8c68d6d3b12c842472c22f7412e431e228a4166bc85922d0000000000000000000000000000000000000000000000000000000000000004000000000000000000000000000000000000000000000000000000000000000c00000000000000000000000001f7ed624961fa35dd666635e736aa39d39f7f38d0000000000000000000000000000000000000000000000000000000000000040000000000000000000000000000000000000000000000000000000000000004440c10f19000000000000000000000000372610bdcfa0531b40c8b27bb22a4e198ef0460400000000000000000000000000000000000000000000000000000000000003e80000000000000000000000000000000000000000000000000000000000000000000000000000000000000000000000000000000000000000000000020000000000000000000000000400319aafd07dfb55b41fbea0180cd5861f23920000000000000000000000007aa58235470f92102dedf3c29ff910208c9e05da",
          "blockHash": "0x23b99709d3edd656a5f6ae7ce5a7abe44720582ec8ff25c68700e5632b3bf929",
          "blockNumber": "0xa53",
          "transactionHash": "0x667d10c5010a698b48419962b245b1051550deb2a229b5710a02978f9023474a",
          "transactionIndex": "0x1",
          "logIndex": "0x4",
          "removed": false
        }
      ],
      "logsBloom": "0x0000000000000000000000000000000000000000000000000000000202000000000000000000000002000000040000000000000200000000000000000000000000000000000000000000000000000000000000000000000000000000008000000000000000000000010001000000000000000000000000000000080000000000000020000000800000000000000000000000000000000000800000000000000020000000000000000000000000000000000000000000000000000000000000000000000000000000000000000000000000000000000000000000000020080001000000000000000000000000000000000000000000000000000a000000000000",
      "type": "0x2",
      "transactionHash": "0x667d10c5010a698b48419962b245b1051550deb2a229b5710a02978f9023474a",
      "transactionIndex": "0x1",
      "blockHash": "0x23b99709d3edd656a5f6ae7ce5a7abe44720582ec8ff25c68700e5632b3bf929",
      "blockNumber": "0xa53",
      "gasUsed": "0x51a22c",
      "effectiveGasPrice": "0x989680",
      "from": "0x372610bdcfa0531b40c8b27bb22a4e198ef04604",
      "to": "0x01009de8100d1b98ebfacf75bed8635f65dcba59",
      "contractAddress": null,
      "gasUsedForL1": "0x6f281",
      "l1BlockNumber": "0x6e6109"
    }
  ],
  "libraries": [],
  "pending": [],
  "returns": {},
  "timestamp": 1733623614,
  "chain": 7625382,
  "commit": "e150f3f"
}